{
  "contractName": "SimpleStorage",
  "abi": [
    {
      "inputs": [],
      "name": "storedData",
      "outputs": [
        {
          "internalType": "uint256",
          "name": "",
          "type": "uint256"
        }
      ],
      "stateMutability": "view",
      "type": "function",
      "constant": true
    },
    {
      "inputs": [],
      "name": "getStoredData",
      "outputs": [
        {
          "internalType": "uint256",
          "name": "",
          "type": "uint256"
        }
      ],
      "stateMutability": "view",
      "type": "function",
      "constant": true
    },
    {
      "inputs": [
        {
          "internalType": "uint256",
          "name": "x",
          "type": "uint256"
        }
      ],
      "name": "setStoredData",
      "outputs": [],
      "stateMutability": "nonpayable",
      "type": "function"
    }
  ],
  "bytecode": "0x608060405234801561001057600080fd5b5060f38061001f6000396000f3fe6080604052348015600f57600080fd5b5060043610603c5760003560e01c80632a1afcd91460415780632f9530f714605d578063b69ca9a1146088575b600080fd5b604760a4565b6040518082815260200191505060405180910390f35b608660048036036020811015607157600080fd5b810190808035906020019092919050505060aa565b005b608e60b4565b6040518082815260200191505060405180910390f35b60005481565b8060008190555050565b6000805490509056fea26469706673582212201d2122cc326e16d625a873e7aa0145c5df39adae3eb0096e56ef9ee79a36e22b64736f6c63430007000033",
  "immutableReferences": {},
  "source": "// SPDX-License-Identifier: MIT\npragma solidity >=0.4.22 <0.9.0;\n\ncontract SimpleStorage {\n  uint256 public storedData;\n\n  function getStoredData() public view returns (uint256) {\n    return storedData;\n  }\n\n  function setStoredData(uint256 x) public {\n    storedData = x;\n  }\n  \n}\n",
  "sourcePath": "C:/Users/mchua/Documents/ETH_Projects/SimpleStorage/contracts/SimpleStorage.sol",
  "compiler": {
    "name": "solc",
    "version": "0.7.0+commit.9e61f92b.Emscripten.clang"
  },
  "schemaVersion": "3.3.3",
  "updatedAt": "2021-01-02T15:17:55.989Z",
  "networkType": "ethereum",
  "devdoc": {
    "kind": "dev",
    "methods": {},
    "version": 1
  },
  "userdoc": {
    "kind": "user",
    "methods": {},
    "version": 1
  }
}